:020000040800F2
:1000000090100020C1010008197400089D670008C5
:1000100015740008E5080008CD7C00080000000009
:100020000000000000000000000000005174000803
:100030006D090008000000001D74000855740008D8
:10004000DB010008DB010008DB010008DB01000820
:10005000DB010008DB010008DB010008DB01000810
:10006000DB010008DB010008DB01000819090008BA
:1000700025090008310900083D0900084909000860
:1000800055090008DB010008DB010008DB0100085E
:10009000E9080008F5080008DB010008DB0100089A
:1000A000197500084575000839750008DB0100085E
:1000B00065750008DB010008DB010008DB010008B2
:1000C000DB010008DB010008DB0100082D740008DB
:1000D00039740008A97C0008B57C0008C17C0008C0
:1000E000DB01000821740008DB01000889750008A5
:1000F000DB010008DB010008DB010008DB01000870
:10010000DB010008DB01000871750008DB01000855
:10011000DD760008E97600087D750008DB0100083F
:10012000DB010008DB01000861090008DB010008B1
:10013000DB010008DB010008DB0100080D090008F5
:1001400001090008DB010008DB010008DB010008F1
:10015000DB010008DB010008DB010008DB0100080F
:10016000DB010008DB010008DB010008DB010008FF
:10017000DB010008DB010008DB01000800000000D3
:1001800091670008DB010008F57600080177000898
:10019000DB010008DB010008DB010008DB010008CF
:1001A0000000000000000000DB010008DFF80CD0B8
:1001B00000F080FB00480047617D0008901000209F
:1001C0000648804706480047FEE7FEE7FEE7FEE7F1
:1001D000FEE7FEE7FEE7FEE7FEE7FEE7057500083F
:1001E000AD0100082DE9F05F0546002092469B46D0
:1001F00088460646814640241BE02846414647463D
:10020000224600F0A1FA53465A46C01A914110D333
:1002100011461846224600F088FA2D1A67EB0108AD
:100220004F4622460120002100F07FFA17EB00091B
:100230004E41201EA4F10104DFDC484631462A4627
:100240004346BDE8F09FD2B201E000F8012B491E01
:10025000FBD270470022F6E710B513460A46044663
:100260001946FFF7F0FF204610BD2DE9FE4F8046EE
:1002700081EA0300C00F0C46009021F0004123F0FA
:100280000045B8EB0200A94105D240462146904600
:100290001C460B46024623F00040104347D0270D72
:1002A000C7F30A00C3F30A510290401A0190402894
:1002B0006BDAC3F3130040F4801B0098924620B120
:1002C0000023D2EB030A63EB0B0B01985946C0F1F4
:1002D0004002504600F029FA06460D46504659465F
:1002E000019A00F041FA10EB08006141002487EA0E
:1002F000115284EAE7731A4340D0009A62B3019A1C
:10030000012A4FEA075215DC001B61EB02014FF096
:10031000004202EA0752CDE90042001C41F580117B
:1003200032462B4600F078FA03B0BDE8F08F404625
:100330002146F9E7001B61EB0201001C41F5801327
:1003400000185B412018A2F5001747EB030140EAB3
:10035000D570B6196D4111E06D084FEA360645EAD1
:10036000C0754FEA0752001B61EB0201001C41F50A
:10037000801149084FEA30000019514132462B469E
:1003800003B0BDE8F04F00F038BA009801224000F9
:100390000023D0EB020263EBE073009821464FEAA2
:1003A000E074B8EB000061EB0401E9E783F000437F
:1003B0005BE781F0004158E72DE9FE4F81EA030435
:1003C00004F0004421F0004100944FF0000B23F0B2
:1003D000004350EA01045ED052EA03045BD0C3F349
:1003E0000A54C1F30A552C44A4F2F3340194A0FB3F
:1003F0000254C1F3130141F48011C3F3130343F416
:10040000801301FB024400FB034E840A970A44EA6E
:10041000815447EA8357A4FB076802958D0A05FBC0
:1004200007854FEA932C04FB0C542705029D4FEAE5
:10043000065847EA1637B5EB08056EEB070C870E32
:10044000920E47EA811742EA8312A7FB0201B6EB3C
:100450000B0164EB00042B0D43EA0C335E1844EBF4
:100460001C50DA465146E7FB0201C5F313044FEA7C
:100470000B3343EA14534FEA0432019C43EA060368
:10048000A4F10C040294009CCDE900B400F0C4F97E
:1004900003B0BDE8F08F00200146F9E72DE9F04DEB
:1004A00081EA030404F0004B21F0004514464FF0AC
:1004B000000A23F0004150EA050220D054EA01026C
:1004C0001DD0C5F30A570246C5F31303C1F3130049
:1004D000C1F30A5640F4801543F48013A7EB0608D5
:1004E000101BD64608F2FD3873EB050002D308F165
:1004F000010801E092185B41B8F1000F03DA002017
:100500000146BDE8F08D00204FF480110646844678
:100510000EE0171B73EB050705D3121B63EB0503F6
:1005200006434CEA010C49084FEA300092185B413F
:1005300050EA0107EDD152EA030012D082EA04002A
:1005400083EA0501084305D0101BAB4106D2012206
:10055000002306E000224FF0004302E06FF00102AA
:1005600053101AEB06004CEB085110EB0A0041EB5C
:100570000B01BDE8F04D00F040B930B5041E71F13B
:10058000000404DB4FF00044404264EB0101141E00
:1005900073F1000405DB1C464FF00043524263EB4D
:1005A0000403801A994101D3012030BD002030BDE1
:1005B00030B5041E71F1000404DB4FF000444042EA
:1005C00064EB0101141E73F1000405DB1C464FF0BF
:1005D0000043524263EB0403101A8B4101D2012005
:1005E00030BD002030BD30B5041E71F1000404DBC5
:1005F0004FF00044404264EB0101141E73F100040B
:1006000005DB1C464FF00043524263EB0403101A13
:100610008B4101D3012030BD002030BD30B5041E18
:1006200071F1000404DB4FF00044404264EB01012F
:10063000141E73F1000405DB1C464FF000435242C8
:1006400063EB0403801A994101D2012030BD0020E0
:1006500030BD0EB5C10F80EAE0700844CA07002122
:1006600040F233438DE80E000A460B4600F0D4F802
:1006700003B000BD0EB540F2334102910021CDE937
:1006800000110A460B4600F0C7F803B000BD70B574
:10069000C1F30A5201F000450024C1F3130140F2F6
:1006A000FF3341F480119A4201DA002070BD40F21C
:1006B00033439A42A2F2334203DC524200F044F840
:1006C00000E090402C43F1D0404270BD00F0004269
:1006D00030F000400AD0C10D01F56071C0F3160082
:1006E00042EA0151C2084007114370470020014609
:1006F000704701F0004330B421F0004150EA01029C
:1007000006D00A0DA2F56072C1F31301002A02DCC3
:1007100030BC00207047440F44EAC104C100E01817
:1007200030BC00EBC25000F031B8202A04DB203A84
:1007300000FA02F1002070479140C2F1200320FA34
:1007400003F3194390407047202A04DB203A21FA32
:1007500002F00021704721FA02F3D040C2F12002DA
:100760009140084319467047202A06DBCB17203AF0
:1007700041FA02F043EAE07306E041FA02F3D040A6
:10078000C2F1200291400843194670470029A8BFD2
:100790007047401C490008BF20F00100704710B4AA
:1007A000B0FA80FC00FA0CF050EA010404BF10BC5F
:1007B000704749B1CCF1200421FA04F411FA0CF18C
:1007C00018BF012121430843A3EB0C01CB1D4FEAC5
:1007D00000614FEA102042BF002010BC704700EBC0
:1007E000C35010440029A4BF10BC7047401C4900EE
:1007F00008BF20F0010010BC704710B5141E73F143
:10080000000408DA401C41F1000192185B411A43D0
:1008100001D120F0010010BD2DE9F04D92469B461C
:1008200011B1B1FA81F202E0B0FA80F220329046C2
:10083000FFF77BFF04460F4640EA0A0041EA0B013E
:1008400053465A46084313D0114653EA010019D0C3
:10085000C8F140025046FFF777FF05460E46504666
:1008600059464246FFF761FF084305D0012004E0E6
:1008700020463946BDE8F08D0020054346EAE07683
:100880002C4337430A986305E40AA0EB08000022D2
:10089000FD0A44EA47540A3002D500200146E9E740
:1008A000010510196941DDE9084500196941BDE8F4
:1008B000F04DA2E71CB50948009009480190054693
:1008C000009C06E0E06840F0010394E807009847C8
:1008D0001034AC42F6D3FFF76DFC00006C880008C2
:1008E0008C880008FEE7000040F2EC20C2F2000015
:1008F00000F0A2B940F2EC20C2F2000000F09CB976
:1009000040F21430C2F2000000F096B940F2143008
:10091000C2F2000000F090B940F2FC30C2F20000D8
:1009200000F07ABD40F21C50C2F2000000F074BD2D
:1009300040F23C30C2F2000000F06EBD40F29C304C
:10094000C2F2000000F068BD40F27C50C2F200002C
:1009500000F062BD40F2BC40C2F2000000F05CBD9D
:1009600040F25C40C2F2000000F056BD704700004B
:1009700072B600BFFEE7000090F82020013A012A7D
:1009800004D8006800F11402002004E000F1240201
:1009900001204FF480211368194311607047000053
:1009A00010B590F820E0D0F800C0AEF1010EBEF115
:1009B000010FDCF808E010D81EF0E05F13D0CEF392
:1009C000016E012000FA0EF018608B688BB1486848
:1009D000CC6844EAC00003430FE000F12401012089
:1009E0004FF4802223E000F1240101204FF4001293
:1009F0001DE00868CB6843EA40530CEB0E10C0F8CA
:100A000080310B69C0F88431097D012905D100F5D9
:100A1000C2710B6843F480730B605168C0F88C118D
:100A2000126800F5C071C0F88821002001220B680F
:100A30001A430A6010BD000090F82020013A012AF4
:100A400030D8B0B546F20060C4F20000026842F04F
:100A500001020260026822F47C520260D1F814E0C4
:100A6000CC694A6A0368012C43EA022202600EF054
:100A70001F024FF0010303FA02F2C3696FEA020C8E
:100A800023EA0203C36113D02CBBC36803EA0C033F
:100A9000C360CB688C8844EA034300EBCE04236434
:100AA0000B4611E0416A41F4802141620120704708
:100AB000C3681343C3600B688C8844EA034300EBAC
:100AC000CE04236401F10C038C681B8843EA0443C1
:100AD00000EBCE04636443688D6943EA0204D1F8F5
:100AE00010E0096A002D08BF03EA0C044460436962
:100AF000BEF1000F43EA020408BF03EA0C04012917
:100B0000446102D1C1691143C161016821F0010151
:100B100001600020B0BD00007047000010B590F8E3
:100B20002040013C012C77D8D0F800C000290CBF30
:100B3000DCF80C40DCF81040A40773D00CEB011C6F
:100B4000DCF8B0410CF5D87E14F004049460DCF8B5
:100B5000B04119BFE4085460640D1460DEF8004031
:100B60000CF5DA7E04F00204D460DCF8B44124070A
:100B70005ABFDEF8004004F00F0408241461DEF8C8
:100B800000400029C4F307249461DEF800404FEAD6
:100B900014445461DCF8B8211A70026802EB0112A7
:100BA000D2F8B8214FEA12225A70026802EB011201
:100BB000D2F8B8214FEA12429A70026802EB011291
:100BC000D2F8B8214FEA1262DA70026802EB011221
:100BD000D2F8BC211A71026802EB0112D2F8BC21D2
:100BE0004FEA12225A71026802EB0112D2F8BC21BC
:100BF0004FEA12429A71026802EB0112D2F8BC214C
:100C00004FEA1262DA7100680CBF00F10C0100F1CA
:100C10001001002020220AE000F1240101204FF4FD
:100C2000802204E000F1240101204FF400120B683F
:100C30001A430A6010BD00002DE9F04F81B0044650
:100C400000684669D0F804908768D0F80CB0D0F8F6
:100C500010A0D0F81880F10703D1002530071CD46C
:100C600023E0F90710D00121BA07816009D4780781
:100C700000F1AA80380700F1B080204600F06CFB3C
:100C800002E0204600F06AFB0025F80500F18480B0
:100C9000F80300F1AA80300707D51BF0100004D03C
:100CA000206845F400751021C160700708D51BF05D
:100CB000080005D020680821C160204600F004FA31
:100CC000B00706D52068C068800702D0204600F033
:100CD000FFF9700607D51AF0100004D0206845F41B
:100CE000806510210161B00608D51AF0080005D012
:100CF000206808210161204600F0FAFAF00606D5C6
:100D000020680069800702D0204600F0F3FAB003A3
:100D100008D519F0100005D0206810214160204648
:100D200000F0EAFAF00308D519F0080005D02068B1
:100D300008214160204600F01BFB300440F18F8009
:100D40005FEA497040F1888006F4807008EA10205C
:100D500028435FEA8871014648BF41F00201B205AD
:100D600058BF01465FEA48700D4648BF45F004058C
:100D7000700558BF0D4630056ED518F070006BD069
:100D800010380009052862D8DFE800F003535659EF
:100D90005C5F45F008055AE020684FF48071BA05A1
:100DA00081600AD4780512D4380519D4204600F0A1
:100DB000D7FAF8037FF56FAF17E0204600F0D2FABC
:100DC000F8037FF568AF10E04FF400655DE705F5C7
:100DD0000055F8037FF55FAF07E04FF4805554E707
:100DE00005F58045F8037FF556AF20684FF4803154
:100DF000BA0381600AD478030FD4380313D4204691
:100E000000F0B2FA30073FF548AF4EE7204600F059
:100E1000ADFA30073FF541AF47E705F5004530072C
:100E20003FF53BAF41E705F5803530073FF535AF7E
:100E30003BE745F010050AE045F0200507E045F0E6
:100E4000400504E045F0800501E045F48075206828
:100E5000816921F0700181612068042141604DB1F8
:100E6000606A40EA05012046616201B0BDE8F04FCA
:100E7000FFF752BE01B0BDE8F08F0000002804BFAC
:100E800001207047B0B5044690F8200010B9204604
:100E900000F06EF82068016841F00101016000F087
:100EA0007DFD054620684168C90705D100F076FD43
:100EB000401B0B28F6D310E0016821F0020101600D
:100EC00000F06CFD054600BF2068416889070DD51C
:100ED00000F064FD401B0B28F6D3606A052140F446
:100EE00000306062012084F82010B0BD217E0268CD
:100EF000012922F0800208BF80320260617E026810
:100F0000012922F0400208BF40320260A17E02683F
:100F1000012922F0200208BF20320260E17E02682F
:100F2000012922F0100218BF10320260217F0268EE
:100F3000012922F0080208BF08320260617F0268BE
:100F4000012922F0040208BF04320260D4E901C280
:100F5000D4E9033561691A432A431143ACF1010214
:100F60001143C16100200121606284F82010B0BDEE
:100F700010B586B0006846F60002C4F200020021F7
:100F80009042CDE90411CDE90211019148D046F219
:100F90000041C4F20001884240F0938040F26801B1
:100FA000C2F200010A6843F64000C4F20200531C7A
:100FB0000B6052B900210091016841F0007101609D
:100FC000016801F00071009100990021009150F832
:100FD000102C42F0010240F8102C50F8100C00F0D8
:100FE0000100009000984FF4C05001900220CDE91C
:100FF000020103200490092005900020C4F20200A1
:1010000001A900F0EFFB14200621002200F04CFDA6
:10101000142000F037FD15200521002215244BE097
:1010200043F64000C4F202000091016841F0806183
:101030000160016801F080610091009940F268014F
:10104000C2F200010A68531C0B6052B900210091E2
:10105000016841F000710160016801F000710091C8
:1010600000990021009150F8102C42F0020240F843
:10107000102C50F8100C00F0020000900098602036
:1010800001900220CDE9020103200490092005907F
:101090000020C4F2020000F5806001A900F0A2FB6C
:1010A0003F200021002200F0FFFC3F2000F0EAFC7E
:1010B000402000210022402400F0F6FC204600F0F1
:1010C000E1FC06B010BD0000704700000000000009
:1010D0002DE9F04381B0016846F60002C4F2000237
:1010E000914257D046F20042C4F20002914240F0D1
:1010F000F18040F2602540F25824C2F20005C2F2AD
:10110000000400212A462346FFF708FD686842F6DE
:101110005911C0F6F041884240F0D9802088FFF78D
:1011200098FA9FED6F0B58EC106B32464346FFF771
:1011300043F99FED6D0B57EC105B2A463B46FFF7DA
:1011400094F8FFF7D6FA40F2C0296188C2F200098C
:10115000C9F800000846FFF77CFA32464346FFF71D
:101160002BF92A463B46FFF780F8FFF7C2FAA18821
:10117000C9F804000846FFF76CFA32464346FFF709
:101180001BF92A463B46FFF770F8FFF7B2FAC9F899
:1011900008009CE040F6903540F68834C2F2000525
:1011A000C2F2000400212A462346FFF7B7FC296853
:1011B000A1F201200A2818D8DFE800F006253649F8
:1011C0008989898989895C00208840F2941100BA54
:1011D0006288000CC2F20001088010BAA288000CDC
:1011E000488010BA000C888071E00A296FD12078FD
:1011F000AE2860D0A3286AD1B4F8010040F23001D3
:10120000C2F2000162E0208840F2941100BA6288C4
:10121000000CC2F20001C88010BAA288000C08813C
:1012200010BA000C488152E0208840F2941100BAB4
:10123000000CC2F200018881A078E2784042C2EB43
:101240000020A288C88110BA000C08823FE02088E4
:1012500040F2941100BA000CC2F200014882A0785A
:10126000E2784042C2EB0020A288888210BA000CCB
:10127000C8822CE020786178A27941EA002040F60B
:101280004031C2F20001B0F5805F888088BF00F570
:10129000604040F23A036788C2F20003188038BA0F
:1012A000A788000C3FBA3F0C58809F80DA80C88026
:1012B0000F818A720BE040F22E00C2F20000012181
:1012C0000170E08840F2DC21C2F2000108800020B9
:1012D000C4E9000001B0BDE8F08300BF00BF00BF5B
:1012E000000000000000803F0000000000406FC0D0
:1012F000704700007047000070470000B0B504461A
:1013000090F8200001281DD1022084F820002068D8
:10131000016821F00101016000F040FB054600BFBB
:1013200020684068C00713D000F038FB401B0B2832
:10133000F6D3606A40F400306062052084F8200033
:101340000120B0BD606A40F4002060620120B0BDA1
:1013500000206062B0BD00007047000070470000D0
:1013600070470000704700007047000070470000A1
:101370007047000070B5866D044600F00FFB94F8CE
:101380003510022925D105462068216C026822F01B
:1013900016020260426922F08002426109B9A16C22
:1013A00019B1016821F008010160016821F0010113
:1013B000016000BF20680068C0070ED000F0EEFAA0
:1013C000401B0628F6D320206065032084F83500F2
:1013D0000CE080206065012008E0E06D3F2101FA0B
:1013E00000F0B060012084F835000020002184F86E
:1013F000341070BD90F83510022909D1052180F80C
:1014000035100068016821F001010160002070477B
:101410008021416501207047F0B581B0044600206D
:10142000009040F20800C2F200000268D4E91660A1
:1014300048F2B51337680821C1F64E33814039426E
:10144000A2FB03250CD0226813685B0708D513683C
:1014500023F004031360B160616D41F00101616527
:1014600001218140394208D022685269120604D510
:10147000B160616D41F00201616504218140394232
:1014800008D022681268920704D5B160616D41F0FE
:101490000401616510218140394215D0206802683D
:1014A000120711D5B16002680168520306D4C9055C
:1014B00006D4016821F00801016001E008033FD46F
:1014C000216C09B120468847E16D202000FA01F225
:1014D0003A4241D020680368DB063DD5B26094F8FB
:1014E00035300268052B1BD122F0160202604269DA
:1014F00022F080024261226C0AB9A26C1AB1026821
:1015000022F0080202603F208840B060012084F889
:101510003500216D0020002984F8340052D156E0B6
:101520000168520310D4C90512D4016821F01001DA
:101530000160012084F83500002084F8340007E0C1
:10154000A16C0029BED1BFE7080301D4616C00E0A3
:10155000E16B09B120468847606DC0B3606DC0077C
:101560002ED0052084F835002068A90A026822F0F0
:1015700001020260009A01328A4200921AD802687F
:10158000D20717D0009A01328A42009212D802681C
:10159000D2070FD0009A01328A4200920AD802681C
:1015A000D20707D0009A01328A42009202D802681C
:1015B000D207DFD1012084F83500002084F8340000
:1015C000E16C21B1204601B0BDE8F040084701B010
:1015D000F0BD00002DE9F041044600F0DFF9C4B190
:1015E0000546022084F835000020216884F8340084
:1015F000086820F00100086021680868C0070BD067
:1016000000F0CCF9401B0528F6D903252023032040
:1016100064E00120BDE8F081086848F23F02CFF2A3
:101620001002D4E9013500EA020C04F10C0898E834
:10163000C10143EA0C032B431843D4E9072E30437E
:1016400038431043626A40EA0E00042A40EA080365
:101650001CD1206BD4E90A2E40EA0E001843086022
:101660004869BEF1000F20F0030040EA020040F09C
:10167000040C11D0B8F5005F35D0B8F1000F42D19D
:10168000022A43D0012A38D032B93FE00B604869C2
:1016900020F0070040EA020C01F0F8004AF6AB2205
:1016A0001038CAF6AA22A0FB02231A0948F66403DE
:1016B000C1F814C0C0F600039A5C40F2FF335F2803
:1016C0004FF03F0021EA030100FA02F088BF043125
:1016D000C4E916128860002301250020636584F8A0
:1016E0003550BDE8F081032AD6D8012540230120DA
:1016F000DFE802F0020C0203F0E7AEF1C070B0FACE
:1017000080F0400904E0032A04D3C5D1CEF3006081
:101710000028C1D0012540230120DFE790F834C024
:10172000BCF1010F04BF0220704770B54FF0010CEF
:1017300080F834C0D0F858E090F835C0BCF1010F03
:1017400037D14FF0020C80F835C04FF0000CC0F8D4
:1017500054C0D0F800C08468056CC06DDCF800602F
:10176000402C26F48026CCF80060CCF804300B46E0
:1017700004BF13460A463F2101FA00F0CCF80830B6
:10178000CCF80C20CEF80800DCF8000040F0160081
:10179000CCF800002DB1DCF8000040F00800CCF8D7
:1017A0000000DCF8000040F00100CCF80000002050
:1017B00070BD002180F83410022070BDB0B5044621
:1017C00000F0ECF8054640F21000C2F2000000788C
:1017D000611C18BF044400BF00F0E0F8401BA042A9
:1017E000FAD3B0BD2DE9F04F82B000F13E4707F1CA
:1017F000FF77860546EA972742F20046C4F20206C2
:101800000A2243F6004EB04208BF0922C4F2010E7C
:10181000092F38BF3A46002600274FF000080092F3
:1018200009E000BF08F101080237B8F1100F06F116
:10183000040600F0A3800D68012202FA08F415EAFC
:101840000409EFD0D1F804B003220BF0030CACF183
:101850000105BA40012D6FEA020A0FD88268CD68EF
:1018600002EA0A02BD402A4382604268A243CBF3E7
:10187000001404FA08F42243426005E0BCF1030FAF
:1018800002D14FF0030C1EE0C2688C6802EA0A0223
:10189000BC402243BCF1020FC26014D16FF00302BE
:1018A00002EA58020244D2F820C006F01C040F23BA
:1018B0000D69A3402CEA0303A5402B431362D1F822
:1018C00004B00BF0030C02680CFA07F302EA0A02F8
:1018D0001A431BF4403F0260A4D0002243F64403A5
:1018E0000192C4F202031A684FF6084C42F4804297
:1018F0001A601A68CFF6FF7C02F480420192019AC6
:1019000028F00302724452F80C3006F00C050F2444
:10191000AC40A343009C04FA05F52B4342F80C307D
:10192000DEF808204B6842EA090543F60C4CDC025D
:1019300058BF22EA0905CEF80850C4F2010CDCF8C1
:1019400000209C0242EA090558BF22EA0905CCF8AA
:101950000050DEF804209C0342EA090558BF22EA41
:101960000905CEF80450DEF80020DB0342EA090541
:1019700058BF22EA0905CEF8005053E702B0BDE88F
:10198000F08F00000069084018BF01207047000078
:10199000002A08BF090481617047000040F6B43096
:1019A000C2F200000068704740F2100040F6B43107
:1019B000C2F20000C2F2000100780A681044086018
:1019C0007047000080B543F60040C4F20200016891
:1019D00041F400710160016841F4806101600168B7
:1019E00041F480710160032000F08AF80F2000F0BC
:1019F00005F800F02BF8002080BD0000B0B540F2E3
:101A00001002C2F2000240F208011278C2F2000194
:101A10004FF47A730968B3FBF2F20446B1FBF2F1BA
:101A2000084601F025FA0F2C4FF001050CD858B9E3
:101A30004FF0FF3021460022002500F035F840F23B
:101A40001400C2F2000004602846B0BD82B000203D
:101A500043F640010190C4F202014A6842F4804218
:101A60004A604A6802F480420192019A0090086834
:101A700040F080500860086800F0805000900098A6
:101A800002B07047002848BF704700F01F010122D4
:101A900002FA01F11C2202EAD0004EF20012CEF24C
:101AA000000281507047000010B54EF60C5CCEF27B
:101AB000000CDCF80030C3F3022E8EF00704042C77
:101AC00028BF0424BEF103034FF0FF3E0EFA04F4D6
:101AD00038BF0023A14399400EFA03F39A43114300
:101AE00000F00F0200F160430901043A03F564437A
:101AF0006244002848BF02F10C03197010BD0000B9
:101B00004EF60C51CEF200010A684FF6FF031A4060
:101B100060F30A2242F0806040F0FD700860704778
:101B2000F0B581B00446006843F6700610F0430F2C
:101B3000C4F2020633D06827C4F247270020386079
:101B4000FFF72CFF054600BF56F8700C000105D5C5
:101B5000FFF724FF401B0228F6D9AFE02068C10739
:101B60006AD1810771D4400608D5E168D4E9010241
:101B7000090641EA801040EA027070610120386075
:101B8000FFF70CFF054600BF56F8700C000105D4A6
:101B9000FFF704FF401B0228F6D98FE0206810F001
:101BA0000C0F68D06827C4F247270020B860FFF701
:101BB000F5FE054656F8700C800005D5FFF7EEFEE1
:101BC000401B0228F6D979E02068410713D5B16996
:101BD000D4E9042301F0E04141EA821141EA0361C2
:101BE000256AB161F1696FF0FF0221F4F85102EB4F
:101BF00005221143F16100070FD5B069216900F09A
:101C00007060A26940EA811040EA0270636AB061C4
:101C1000F06920F440301843F0610120B860FFF70C
:101C2000BDFE054656F8700C800023D4FFF7B6FEC3
:101C3000401B0228F6D941E0D4E90112120742EA1A
:101C40008111716181077FF58EAF7169626801F062
:101C5000E041E36841EA821141EA0361E5697161AB
:101C6000F1696A1E21F01F011143F16140063FF541
:101C70007CAF83E72068810653D50020009056F89A
:101C8000300C47F2000740F0805046F8300C56F810
:101C9000300CC4F2000700F08050009000983868C3
:101CA00040F480703860FFF779FE05463868C0055B
:101CB00007D4FFF773FE401B0228F7D9032001B0B9
:101CC000F0BD306810F4407013D0A16A01F4407187
:101CD00088420ED0306840F64061C4F247210122AC
:101CE00020F440700A6000220A6030603068C0074B
:101CF00024D12068A16A56F8682C4FF6FF4701F4FA
:101D0000407322F4F812C0F6FF770F40B3F5407F1E
:101D100008BF3A4346F8682C32686FF31F3111430D
:101D20003160C00607D594F82C0040F64061C4F23B
:101D30004721C1F8A003002001B0F0BDFFF72EFE3F
:101D4000054641F2883730688007D2D4FFF726FE77
:101D5000401BB8424FF00300F5D9EDE7002804BF5F
:101D6000012070472DE9F04143F60808C4F202084B
:101D70000446D8F8F8030D4600F00F00884207D259
:101D800088F8F853D8F8F80300F00F00A84276D18D
:101D90002068810717D5410705D5D8F8001041F410
:101DA000E051C8F80010010705D5D8F8001041F43B
:101DB0006041C8F80010D8F80010A26821F0F001C6
:101DC0001143C8F80010C0073FD1D8F8F80300F05D
:101DD0000F00A84207D988F8F853D8F8F80300F0A4
:101DE0000F00A8424BD12068410707D5D8F8001052
:101DF000E26821F4E0511143C8F80010000708D54B
:101E0000D8F80000216920F4604040EAC100C8F819
:101E1000000000F07BF8D8F8001048F62A02C1F361
:101E20000311C0F60002515C40F2080220FA01F1F1
:101E300040F21400C2F200000068C2F20002116019
:101E4000FFF7DCFD0020BDE8F0816068811E0229FB
:101E500007D258F8081C89015CBF0120BDE8F08159
:101E600010E0012807D158F8081C89035CBF012045
:101E7000BDE8F08106E058F8081C890702D401206B
:101E8000BDE8F081D8F8001021F003010843C8F83C
:101E90000000FFF783FD064641F28837D8F80000BE
:101EA000616800F00C00B0EB810F8ED0FFF776FD7B
:101EB000801BB842F2D90320BDE8F08140F208004F
:101EC00043F60801C2F20000C4F20201006809688A
:101ED00048F63A02C1F38221C0F60002515CC840C4
:101EE0007047000040F2080043F60801C2F200000B
:101EF000C4F202010068096848F63A02C1F34231AF
:101F0000C0F60002515CC8407047000010B543F6AF
:101F10000404C4F20204606800F00C0008280AD02F
:101F2000042819BF42F20040C0F2F40047F6400016
:101F3000C0F27D1010BD206821682368490247F671
:101F40004001C0F27D1100F03F02C3F388105CBF76
:101F500042F20041C0F2F401A1FB00010023FEF7B0
:101F600041F921680222C1F3014102EB4101B0FBBA
:101F7000F1F010BD002804BF012070472DE9F041A9
:101F800082B00446007843F60006C007C4F2020699
:101F90000BD0B06800F00C00042878D130688003C2
:101FA00003D56068002800F05181207880071AD599
:101FB000B06810F00C0F08D0B06800F00C000828D2
:101FC00040F07F80706840027BD43068800703D582
:101FD000E068012840F03A813068216920F0F8007B
:101FE00040EAC10030602078000713D42078400711
:101FF00027D4A569002D00F02581B06800F00C0001
:10200000082840F09180012D40F0F980012002B0B5
:10201000BDE8F0816069002840F20000C4F247206A
:1020200072D00121C0F8801EFFF7B8FC054600BF42
:10203000706F8007DAD4FFF7B1FC401B0228F7D994
:10204000D9E0306C5FEAC0080AD400200190306CFF
:1020500040F080503064306C00F080500190019866
:1020600047F20007C4F200073868C0053ED438685C
:1020700040F480703860FFF791FC05463868C00571
:1020800034D4FFF78BFC401B0228F7D9B3E0B068CB
:1020900000F00C00082803D1706840023FF57EAFC5
:1020A0006068B0F5803F07D0B0F5A02F40F08D807C
:1020B000306840F480203060306840F48030306018
:1020C0008DE0E068002852D00020C4F247200121B2
:1020D0000160FFF763FC0546306880073FF57CAF81
:1020E000FFF75CFC401B0228F6D984E0A0680128B9
:1020F00005D0052850D1306F40F004003067306FB4
:1021000040F00100306751E00021C0F8801EFFF769
:1021100045FC0546706F80077FF568AFFFF73EFC12
:10212000401B0228F6D966E00027C4F247270020AA
:102130003866FFF733FC022D05460DD1306880016B
:1021400040F18880FFF72AFC401B02284FF0030073
:10215000F4D902B0BDE8F0813068800172D5FFF794
:102160001DFC401B02284FF00300F5D9F1E70020C9
:10217000C4F2472000210160FFF710FC054600BFB4
:10218000306880077FF52FAFFFF708FC401B02285F
:102190004FF00300F4D9DCE7316F002821F0010192
:1021A0003167316F21F00401316774D0FFF7F6FB1E
:1021B000054641F2883700BF306F80077BD4FFF7B8
:1021C000EDFB401BB842F7D915E03168002821F437
:1021D00080313160316821F48021316074D0FFF7A3
:1021E000DDFB0546306880033FF5DFAEFFF7D6FB29
:1021F000401B6428F6D9032002B0BDE8F081706866
:10220000E16900F480028A4220D1216A00F03F0295
:102210008A421BD147F6C071626A0140B1EB821F4E
:1022200014D1A16A4FF6FF73C903994300F44032F9
:10223000A1F580318A4209D1E16A00F07060B0EB0B
:10224000016F03D1002002B0BDE8F081012002B08F
:10225000BDE8F08104F11C052FCD084340EA82104F
:10226000D9034FF6FF729143A1F5803140EA056032
:102270000843706001203866FFF790FB044600BFFA
:1022800030688001DED4FFF789FB001B02284FF085
:102290000300F5D95DE7FFF781FB054641F288377A
:1022A000306F800707D5FFF779FB401BB8424FF02E
:1022B0000300F5D94DE7B8F1000F3FF59AAE306C49
:1022C00020F08050306494E6FFF768FB054600BFBD
:1022D000306880037FF569AEFFF760FB401B642820
:1022E0004FF00300F4D934E77047000070B504469E
:1022F0000079012804BF022070BD0120207160799F
:1023000001281CD102200D466071FFF747FB2168B0
:102310004A68D20717D1064603E000BF4868C007E5
:1023200011D1FFF73BFB801B21680328F6D34868D7
:10233000C007F3D1012002216071A16009E00420EF
:10234000A060012005E08868E060286001206071DD
:1023500000200021217170BD10B50446006841685D
:102360008A060ED44A060ED4C90708BF10BD0168FC
:1023700021F0080101608168E160607904280ED1D4
:1023800010BD102000E00820A060042060712046ED
:10239000FFF7AAFF20686FF06001416010BD0120C7
:1023A0000022607120462271BDE8104000F03EB866
:1023B000002804BF0120704710B50446407920B9B9
:1023C00000202071204600F00DF802206071206886
:1023D000016841F004010160012060710020A060EB
:1023E00010BD0000006840F60001C5F206018842F9
:1023F00018BF704780B582B00020019043F63400CA
:10240000C4F202000168002241F04001016000684E
:10241000002100F04000019001985020FFF744FB9C
:10242000502002B0BDE88040FFF72CBB7047000091
:10243000704700007047000010B5044643F6144092
:10244000C4F201004FF40031016020688168C904C2
:1024500044BFC1685FEAC15109D48168890444BF9F
:10246000C1685FEA81510DD40120607710BDC16859
:1024700061F4C07121F48071C1602046FFF7DAFF7A
:102480002068EAE7C16861F4207121F40071C1603D
:102490002046FFF7CDFFE7E7002804BF0120704783
:1024A000B0B50446407F20B900202077204600F0D8
:1024B0006DF8022060772168C868C0065AD4CA2027
:1024C000486253204862C868400615D4C86840F086
:1024D0008000C860FFF762FA2168CA6852060BD410
:1024E000054600BFFFF75AFA401BB0F57A7F45D882
:1024F0002168C8684006F5D588684FF6BF72CFF6E8
:102500008F7210408860D4E9010CD4E90335626908
:1025100028438D681043284388600B61086940EAAE
:102520000C400861C86820F08000C8608868800698
:1025300016D447F65F70C0F20100C860FFF72EFAAC
:10254000054600BF2168C868800609D4FFF726FA4F
:10255000401BB0F57A7FF5D904206077206811E040
:10256000086C20F480200864A0690A6C1043086499
:10257000FF204862012060770020B0BD0420607712
:102580002068C168FF2141620120B0BD10B58CB048
:102590000446684604302C21FDF75CFE206842F6B4
:1025A0000001C4F20001884201D00CB010BD20200F
:1025B00000904FF400700A906846FFF7B1FA0028C7
:1025C00018BFFEF7D5F940F63C60C4F24720012160
:1025D0000160292000210022FFF766FA2920FFF779
:1025E00051FA0CB010BD00002DE9F04F81B040F25F
:1025F0000803C2F200031B6844F6D355C1F262051A
:10260000A3FB0535EB0A4FF47A7503FB05FECDF805
:1026100000E0037F012B4FF0020300F0328143778B
:10262000D0F800C0DCF8083022B15A0609D40022E4
:10263000CA7008E05A0618D44FF0000881F80380E9
:1026400016E0CA7892054C780B788D78240244EA1B
:1026500003432B44CC691A4391F820304D6922433F
:1026600042EA036242EA050461E0CA784FEA82580E
:102670000E784FF0CD09A6F10A04E3B203FB09F38B
:10268000DA0A4F785FFA86FA02EB82024FF0010B0A
:102690008D78A4EB42020BEBD323BAF1090F88BF6C
:1026A00042EA03165FFA86FAA7F10A06F4B204FBBF
:1026B00009F4E20AFBB202EB82020BEBD424A6EB94
:1026C0004202092B88BF42EA0417A5F10A04E6B2C8
:1026D00006FB09F6FAB2F70A07EB8707EBB2A4EBA1
:1026E00047040BEBD626092B88BF44EA061591F860
:1026F0002040EBB2A4F10A05EEB2120206FB09F685
:1027000042EA0A42F70A1A44E3B207EB8707A5EB4D
:1027100047050BEBD626092B88BF45EA0614CB6983
:102720004D6943EA08032B431A4342EA04644A68AA
:102730008B694D6ACA21CCF824105321CCF824109F
:10274000DCF80810B5F5807F3DD121F48071CCF81C
:102750000810DCF80C1061F4C07121F48071CCF821
:102760000C100099013900910099002900F0818036
:10277000DCF80C10C9071DD10099013900910099AE
:10278000002976D0DCF80C10C90713D10099013963
:102790000091009900296CD0DCF80C10C90709D110
:1027A0000099013900910099002962D0DCF80C10E1
:1027B000C907D6D0CCF81C400CF144054FF4805129
:1027C0004FF480743AE021F40071CCF80810DCF882
:1027D0000C1061F4207121F40071CCF80C10CDF8CC
:1027E00000E00099013900910099002941D0DCF8FE
:1027F0000C1089071AD40099013900910099C1B3CE
:10280000DCF80C10890711D4009901390091009966
:1028100079B3DCF80C10890708D4009901390091CC
:10282000009931B3DCF80C108907DAD5CCF82040D8
:102830000CF148054FF400514FF400741A432A601C
:10284000DCF8082000232243CCF80820DCF808201C
:102850001143CCF8081043F60041C4F201010A68A4
:1028600042F400320A608A6842F400328A60012130
:1028700001E003210323FF22CCF82420417700212B
:102880000177184601B0BDE8F08F00002DE9F04354
:1028900081B00446007F01284FF0020000F09E80C6
:1028A00001232377607732B14878CA788E780002A6
:1028B00040EA024845E048784FF0CD0CC20642BFDE
:1028C00000F0EF000A304870CA784FF00109A2F119
:1028D0000A07FDB205FB0CF5EB0A03EB83035FFA75
:1028E00082FEA7EB43038E7809EBD525BEF1090FD5
:1028F00088BF43EA0512A0F10A03DDB205FB0CF51F
:10290000EF0A07EB8707A3EB470309EBD527092855
:1029100088BF43EA0710C0B2D2B2000240EA0248C0
:10292000A6F10A02D3B203FB0CF3DF0AF0B207EB05
:102930008707A2EB470209EBD323092888BF42EAA5
:1029400003160F782168CA20486253204862C8687D
:10295000400615D4C86840F08000C860FFF71EF834
:102960002168CA6852060BD4054600BFFFF716F867
:10297000401BB0F57A7F34D82168C8684006F5D589
:10298000F0B240EA08007A0320F0C000104348602B
:10299000C86820F08000C8608868800617D447F6B1
:1029A0005F70C0F20100C860FEF7F8FF054600BF87
:1029B0002168C86880060AD4FEF7F0FF401BB0F516
:1029C0007A7FF5D9042060772168012002E0012098
:1029D00060770020FF224A620021217701B0BDE824
:1029E000F083042060772168C8680120F2E70000C6
:1029F0002DE9F04F81B00446007F01284FF002001E
:102A000000F0C0800D460121217760772168886839
:102A100032B140060BD44FF0000885F8038009E07E
:102A200040060FD44FF0000885F803800DE0E878E9
:102A30004FEA80586A78287895F802A0120242EA94
:102A4000004946E0E8784FEA80582A784FF0CD0CEC
:102A5000A2F10A00C6B206FB0CF66B78F70A4FF03B
:102A6000010B5FFA82FE07EB87070BEBD62695F882
:102A700002A0A0EB4700BEF1090F88BF40EA061292
:102A8000A3F10A06F7B207FB0CF7F80A5FFA82FE19
:102A9000DAB200EB8000A6EB40000BEBD726092A48
:102AA00088BF40EA0613AAF10A02D8B2D3B203FBE8
:102AB0000CF30002DF0A40EA0E495FFA8AF007EBE6
:102AC0008707A2EB47020BEBD323092888BF42EA12
:102AD000031ACA20486253204862C868400615D4C9
:102AE000C86840F08000C860FEF758FF2168CA68D7
:102AF00052060BD4064600BFFEF750FF801BB0F510
:102B00007A7F42D82168C8684006F5D55FFA8AF016
:102B100040EA090047F67F7240EA0800C0F27F02EF
:102B200010400860886820F480208860D5E903029E
:102B30008B68104318438860C86820F08000C86024
:102B40008868800617D447F65F70C0F20100C8603D
:102B5000FEF724FF054600BF2168C86880060AD436
:102B6000FEF71CFF401BB0F57A7FF5D90420607793
:102B70002168012002E0012060770020FF224A62E4
:102B80000021217701B0BDE8F08F04206077216833
:102B9000C8680120F2E7000070470000B0B582B0BD
:102BA000044600684168826802F04103012B04D1A9
:102BB00011F0400301D0216C05E0930708D511F016
:102BC000800305D0616C204602B0BDE8B0400847E4
:102BD00012F4B07F18BF11F0200301D102B0B0BDD4
:102BE000530617D594F85130032B08D100210191D9
:102BF000C168019180680190019802B0B0BD636D19
:102C000043F00403636500230193C3680193836861
:102C10000193019B93060CD5636D43F0010363653B
:102C20000023019383680193036823F0400303604A
:102C3000019BD20508D5626D42F008026265002250
:102C4000019282680192019A626D002AC6D04268A0
:102C5000890722F0E00242604FF0010284F851201F
:102C60001FD0416847F2454521F003014160E06C07
:102C7000C0F6000538B10565FEF7BCFB18B1606D04
:102C800040F040006065A06C0028A7D00565FEF705
:102C9000B1FB0028A2D0606D40F04000606502B03A
:102CA000B0BD204602B0BDE8B040FFF775BF0000E0
:102CB00070B538B10446406A30B10020206104F19B
:102CC000140007E0012070BD6068B0F5827F03D07A
:102CD00004F11C00002101600026A66294F8510056
:102CE00020B9204684F8506000F03CF8022084F8B7
:102CF000510094E80F0001F48271056802F4044267
:102D000025F040050560114403F400622369114475
:102D100003F002026369114403F00102A369E5694B
:102D2000114403F40072114405F03802256A11447D
:102D300005F08002A56A114305F4005211430160B9
:102D4000626A042101EA134102F010021144416059
:102D5000C16921F40061C1610120666584F85100F8
:102D6000304670BDF0B587B0006843F60001C4F28C
:102D7000000100248842CDE90544CDE903440294D2
:102D80002AD043F20001C4F2010188426DD1002033
:102D900043F630010190C4F202014A69232442F44F
:102DA00080524A614A6902F480520192019A01906C
:102DB0000A6842F001020A60096801F0010101910C
:102DC0000199E02102910221CDE903100320059031
:102DD0000020C4F202003BE043F630000194C4F24C
:102DE00002000169002741F4804101610169C4F2D8
:102DF000020701F4804101910199019401680225C3
:102E000041F0040101600168032601F00401019111
:102E100001990194016841F002010160006802A972
:102E200000F00200019001980C200290052006900D
:102E300007F50060CDE903540596FEF7D3FC4FF487
:102E40008060CDE90205CDE9044607F580602424C1
:102E50000521069102A9FEF7C5FC204600210022AB
:102E6000FEF722FE2046FEF70DFE07B0F0BD000083
:102E7000411E0020B0EB116F1CBF012070474EF2C5
:102E80001002CEF2000251604EF62351CEF2000144
:102E9000F0230B70072190601160704770470000AD
:102EA0007047000090F83C20012A04BF02207047C0
:102EB000B0B501F108053CCDD1E900CE23F47C5337
:102EC00022F470521A432EF4F0431A432CF4E043D8
:102ED0001A4324F4C0431A432A43C96922F48042A6
:102EE000036811435964002180F83C10BDE8B040EC
:102EF0000846704790F83C20012A4FF0020252D059
:102F000010B580F83D200268D2F804E0D2F808C07D
:102F10000C682EF07003234341F2FF74C4F20004E6
:102F2000A24253600DDC40F2FF73C4F200039A42E8
:102F300015DCB2F1804F29D040F20043C4F2000307
:102F400022E040F2FF33C4F201039A4212DC41F660
:102F50000003C4F200039A4218D0002312E040F6A6
:102F60000003C4F200039A4210D040F60043C4F2BA
:102F7000000309E044F20003C4F201039A4205D0C1
:102F800040F20043C4F201039A4204D149682CF094
:102F90008003194391600121002280F83D1080F8E0
:102FA0003C20BDE8104010467047000041B10829A0
:102FB00010D0042914BF00F1450200F143020BE0D8
:102FC00090F84220012A1CBF01207047022280F89D
:102FD000422012E000F144021278012A1CBF0120B5
:102FE00070470222082906D0042914BF80F8452022
:102FF00080F8432001E080F84420006801F00F01D0
:103000000422036A02FA01F123EA01020262026A5F
:1030100011430162416C41F2FF72C4F2000241F4BB
:103020000041904241640DDC40F2FF71C4F20001A6
:10303000884215DCB0F1804F29D040F20041C4F243
:10304000000122E040F2FF31C4F20101884212DCAB
:1030500041F60001C4F20001884218D0002112E0BC
:1030600040F60001C4F20001884210D040F6004151
:10307000C4F2000109E044F20001C4F201018842F7
:1030800005D040F20041C4F20101884204D18168B8
:1030900001F00701062903D0016841F00101016038
:1030A00000207047002804BF0120704710B5044677
:1030B00090F83D0028B9002084F83C00204600F03C
:1030C0001FF8022084F83D002068211D04F06CFAEE
:1030D000012084F8460084F83E0084F83F0084F81C
:1030E000400084F8410084F8420084F8430084F8EA
:1030F000440084F8450084F83D00002010BD000025
:1031000080B586B0006841F2FF71C4F200018842C8
:103110004FF000010591CDE90311CDE9011130DD3A
:1031200040F2FF31C4F2010188424CDD40F200411F
:10313000C4F20101884200F09D8044F20001C4F213
:103140000101884200F0A48044F20041C4F2010170
:10315000884240F02E810020009043F64000C4F2E7
:1031600002004168002241F40031416040680021C2
:1031700000F40030009000981920FEF795FC19200B
:10318000E1E040F6FF31C4F2000188424EDCB0F1CC
:10319000804F00F0938040F60001C4F200018842A5
:1031A00040F007810020009043F64000C4F2020086
:1031B000016841F004010160006800F00400009023
:1031C000009806B080BD41F60001C4F200018842BB
:1031D00000F0A4800021C4F20101884240F0E9809F
:1031E0000020009043F64000C4F202004168002233
:1031F00041F0010141604068002100F001000090B1
:1032000000981820FEF750FC1820FEF73BFC192010
:1032100000210022FEF748FC1920FEF733FC1A209B
:1032200000210022FEF740FC1A208CE040F600410D
:10323000C4F20001884200F08B8041F20001C4F228
:103240000001884240F0B5800020009043F6400025
:10325000C4F202000168002241F010010160006820
:10326000002100F01000009000983620FEF71CFCB2
:10327000362068E00020009043F64000C4F20200CF
:10328000416841F002014160406800F0020052E0F4
:103290000020009043F64000C4F202004168002282
:1032A00041F4803141604068002100F4803000909A
:1032B00000981820FEF7F8FB182044E0002043F6A1
:1032C00040010090C4F202010A6842F001020A6063
:1032D0000A6802F001020092009A009051F8102C46
:1032E00042F0010241F8102C51F8101C01F00101CC
:1032F00000910099CDE903000120022105900020F2
:10330000CDE90111C4F2020001A9FEF76BFA1C20FD
:1033100000210022FEF7C8FB1C2048E0002000909E
:1033200043F64000C4F20200016841F04001016030
:10333000006800F04000009000982B20002100223F
:10334000FEF7B2FB2B2006B0BDE88040FEF79ABB2B
:10335000002043F640010090C4F202010A6842F0E6
:1033600008020A600A6802F008020092009A0090BF
:1033700051F8102C42F0010241F8102C51F8101CA9
:1033800001F0010100910099082101910221CDE98C
:103390000210CDE904010020C4F2020001A9FEF7E9
:1033A00021FA322000210022FEF77EFB3220FEF7B8
:1033B00069FB06B080BD000090F83D1001291CBFDC
:1033C00001207047022180F83D10006841F2FF7231
:1033D000C168C4F20002904241F00101C1600DDCFD
:1033E00040F2FF71C4F20001884215DCB0F1804F59
:1033F00029D040F20041C4F2000122E040F2FF3146
:10340000C4F20101884212DC41F60001C4F200015D
:10341000884218D0002112E040F60001C4F20001F9
:10342000884210D040F60041C4F2000109E044F2A5
:103430000001C4F20101884205D040F20041C4F20B
:103440000101884206D1816801F00701062904BF05
:1034500000207047016841F00101016000207047C1
:1034600090F83C20012A4FF0020200F0C38080B5A2
:1034700080F83D20D0F800C04FF67772DCF80830B5
:1034800023EA0202CCF808200B684F2B28DC1F2B04
:1034900044DD202B45D0302B43D0402B40F0AC8076
:1034A000D1F804E0C968DCF82030DCF8202022F0F4
:1034B0000102CCF82020DCF8182022F0F00242EAC9
:1034C000011123F00A0242EA0E02CCF81810CCF8DF
:1034D0002020DCF8081041F0470121F030017EE0A7
:1034E0006F2B26DDB3F5005F47D0B3F5805F78D052
:1034F000702B40F08180D1E901E3C968DCF8082035
:1035000043EA0E0322F47F4243EA01211143CCF83F
:103510000810DCF8081041F0770160E00BB1102BC7
:103520006AD1DCF8081021F07001194341F007015D
:1035300055E0502B34D0602B5ED1D1F804E0C9683F
:10354000DCF82030DCF8202022F01002CCF820201B
:10355000DCF8182022F4704242EA013123F0A00284
:1035600042EA0E12CCF81810CCF82020DCF8081033
:1035700041F0670121F0100131E0D1E901E3C968B0
:10358000DCF8082043EA0E0322F47F4243EA0121DB
:103590001143CCF80810DCF8081041F480411EE01B
:1035A000D1F804E0C968DCF82030DCF8202022F0F3
:1035B0000102CCF82020DCF8182022F0F00242EAC8
:1035C000011123F00A0242EA0E02CCF81810CCF8DE
:1035D0002020DCF8081041F0570121F02001CCF840
:1035E00008100022012180F83D10002180F83C10D5
:1035F000BDE88040104670470122F3E7000000005C
:103600002DE9F04F81B040F62408C2F20008404591
:1036100064D198F81C00082860D140460C2101F0C4
:10362000CFFD40F68844C2F20004206040460821E5
:1036300001F0C6FD40F6744100EE100AC2F200012E
:10364000B8EE400A086010EE100AFDF73FF8256852
:10365000814628010E46FDF70DF89FED230B57EC30
:10366000104B22463B46FCF719FF02460B464846E4
:103670003146FCF79BFE814628468A46FCF7FAFF56
:10368000064605EB4500C0008B46FCF7F3FF2246DB
:103690003B46FCF703FF02460B4630465946FCF713
:1036A00085FE02460B4648465146FCF7F7FEFDF7FD
:1036B00020F800EE100A40F678409FED0D1AB5EEA6
:1036C000400AC2F20000F1EE10FAC8BFB0EE401A94
:1036D00080ED001AD8F800000021416201B0BDE879
:1036E000F08F00BF00BF00BF000000000017B04017
:1036F0000000000090F83C30012B04BF022070470E
:103700004FEAB202032A26D8F0B5DFE802F002261B
:1037100044640368D1E900C5D1F80CE01C6A1A6A58
:1037200041F2FF7722F001021A621A4652F8186F2E
:10373000C4F20007BB4274DC40F2FF77C4F200071A
:10374000BB427CDCB3F1804F00F0908040F2004738
:10375000C4F2000788E001219FE00368D1E900E698
:10376000D1E902C11C6A1A6A360222F010021A62FA
:103770001A4652F8185F4FF2FF07BE4325F473450F
:1037800061F30F3624F0A0040EF00A0746EA0501A3
:1037900044EA07173CE00768D1E900C5D1E90231E6
:1037A0003C6A3A6A61F3071522F480723A623A463B
:1037B00052F81C6F26F0F30645EA060124F4206651
:1037C0000CF00A0546EA052611603E62116821F0F8
:1037D0000C0111605BE00368D1E900E6D1E902C1A8
:1037E0001C6A1A6A360222F480521A621A4652F889
:1037F0001C5F4FF2FF07BE4325F4734561F30F369C
:1038000024F420440EF00A0746EA050144EA07378B
:1038100011601F6211684FEA0C2321F440611160AE
:1038200035E040F2FF37C4F20107BB4212DC41F63B
:103830000007C4F20007BB4218D0002712E040F690
:103840000007C4F20007BB4210D040F60047C4F2A4
:10385000000709E044F20007C4F20107BB4205D0AB
:1038600040F20047C4F20107BB421BD126F0030619
:10387000354324F00A070CF00A066EF307153744A7
:103880009D611F629F6927F00C079F618B6811681B
:10389000194311600021BDE8F040002280F83C206F
:1038A0000846704746F00105E3E70000002804BF22
:1038B0000120704710B5044690F83D0028B900205B
:1038C00084F83C00204600F01FF8022084F83D00F8
:1038D0002068211D03F068FE012084F8460084F86A
:1038E0003E0084F83F0084F8400084F8410084F8EA
:1038F000420084F8430084F8440084F8450084F8CA
:103900003D00002010BD00007047000061B1082993
:1039100016D0042919BF00F1410200F1450300F15E
:103920003F0200F143030FE090F83E2090F8423050
:10393000012A4FF0010208BF012B17D01046704733
:1039400000F1400200F1440312781B78012A4FF085
:10395000010208BF012BF1D1022208290CD0042951
:103960000FD180F83F2080F843200EE0022280F83B
:103970003E2080F8422008E080F8402080F8442073
:1039800003E080F8412080F845204FEAB103032B83
:103990004FF00102D2D848F6440C0068C0F6000C83
:1039A0005CF823C0C36801F01F0143EA0C03C36045
:1039B000036A02FA01F123EA01020262026A114378
:1039C00041F2FF72C4F20002904201620DDC40F24B
:1039D000FF71C4F20001884215DCB0F1804F29D09C
:1039E00040F20041C4F2000122E040F2FF31C4F293
:1039F0000101884212DC41F60001C4F20001884254
:103A000018D0002112E040F60001C4F20001884203
:103A100010D040F60041C4F2000109E044F2000178
:103A2000C4F20101884205D040F20041C4F2010114
:103A3000884204D1816801F00701062903D001689A
:103A400041F00101016000221046704770B5044644
:103A50000068C5680669B10716D515F0020113D0D4
:103A60006FF002010161012121778069800703D095
:103A70002046FFF7C5FD05E0204600F08DF8204602
:103A800000F0C6F900202077700718D515F0040063
:103A900015D020686FF0040101610221217780694F
:103AA00010F4407F03D02046FFF7AAFD05E0204632
:103AB00000F072F8204600F0ABF9002020773007C4
:103AC00017D515F0080014D020686FF008010161C7
:103AD00004212177C069800703D02046FFF790FDBD
:103AE00005E0204600F058F8204600F091F900204B
:103AF0002077F00618D515F0100015D020686FF06B
:103B00001001016108212177C06910F4407F03D0C2
:103B10002046FFF775FD05E0204600F03DF8204601
:103B200000F076F900202077F00718BF15F00100AB
:103B300002D1300609D412E020686FF00101016162
:103B4000204600F069F9300609D515F0800006D04E
:103B500020686FF0800101612046FFF79FF9700631
:103B600009D515F0400006D020686FF040010161D2
:103B7000204601F03FFBB00658BF70BD15F0200095
:103B800008D021686FF0200220460A61BDE870402D
:103B9000FFF786B970BD00007047000090F83C3018
:103BA000012B04BF022070474FEAB202032A00F241
:103BB000FD802DE9F043DFE802F0023D7CBC0368A4
:103BC00040F200461C6A1A6A24F0020422F0010244
:103BD0001A621A46D3F804C052F818EF8F6843F4FB
:103BE0008065C4F20106B54244EA070405D1CF68F6
:103BF00024F00C0427F004073C430F68B54206D1BB
:103C0000D1E905582CF440762E4346EA080C2EF0F4
:103C100073063743C3F804C09F614F6809695F6347
:103C20001C629F6947F008079F619F6927F004079E
:103C30009F61B0E0036840F200481C6A1A6A24F0F1
:103C4000200422F010021A621A46D3F804C052F877
:103C500018EF8F6843F48065C4F20108454544EAD3
:103C6000071407D1CF686FF0400624F0C00406EABD
:103C700007163443D1F80090454506D1D1E90556E1
:103C80002CF440672E4347EA860C2EF4E64747EAB9
:103C90000927C3F804C09F614F6809699F631C62CC
:103CA0009F6947F400679F619F6927F480679F6160
:103CB00070E0036840F200481C6A1A6A24F4007439
:103CC00022F480721A621A46D3F804C052F81CEF2C
:103CD0008F6843F48065C4F20108454544EA07242F
:103CE00008D1CF6840F2FF463F0224F4406427EA3F
:103CF00006063443D1F80090454506D1D1E9055672
:103D00002CF440572E4347EA061C2EF0730747EA6F
:103D10000907C3F804C0DF614F680969DF631C62EB
:103D2000DF6947F00807DF61DF6927F00407DF611B
:103D300031E0036840F20045D3F820C01A6A43F42A
:103D4000806722F480521A621A465C6852F81CEFAF
:103D5000D1F800808E68C4F20105AF4204D14D69EC
:103D600024F4804444EA85142CF4005747EA0637CB
:103D70002EF4E64646EA08265C60DE614E68096974
:103D80001E641F62DF6947F40067DF61DF6927F4A3
:103D90008067DF6109021368194311600021BDE8E3
:103DA000F043002280F83C20084670470121F8E7E4
:103DB000002804BF0120704710B5044690F83D006C
:103DC00028B9002084F83C00204600F01FF80220AB
:103DD00084F83D002068211D03F0E6FB012084F8F3
:103DE000460084F83E0084F83F0084F8400084F8E0
:103DF000410084F8420084F8430084F8440084F8C9
:103E0000450084F83D00002010BD00007047000010
:103E100070470000000000002DE9F04F81B02DED4B
:103E20000C8B90B040F2BC61C2F2000188424BD0D2
:103E300040F6FC01C2F2000188425ED040F20471FB
:103E4000C2F20001884241F08F8140F2A021C2F20B
:103E50000001087840F20004421C02F003000870E0
:103E6000D107C2F2000440F0828004F03BFC40F62F
:103E7000C830C2F200000068FCF728FC804640F61B
:103E8000C030C2F2000090ED008A894618EE100A98
:103E9000FCF71CFC9FEDE80B064654EC105B0F464C
:103EA000404649462A462346FCF782FB002868D153
:103EB0009FEDE30B304653EC102B3946FCF75DFBCE
:103EC00000285ED001206EE040F22C00C2F200001B
:103ED000017840F22D02C2F20002117040F2360168
:103EE000C2F200010A7840F23703C2F200031A70EE
:103EF000002202700A7001F037B940F63C30C2F27D
:103F0000000040F26E010268C2F200010B88B2F1BB
:103F1000FF3F0FDC40F26C07C2F200073F7840F22F
:103F200039060133C2F20006002F4FF001070B8063
:103F3000377004D09BB240F6FD07BB4203D3524218
:103F400002600020088040F2BC20C2F2000001683C
:103F50004A1C642A0260C1F007810231016040F20C
:103F60000000C2F200000221017001F0FDB801283A
:103F700000F00081032840F0D58703F0D7FE00F061
:103F8000D1BF304639462A462346FCF711FB88B993
:103F90009FEDAB0B404653EC102B4946FCF73EFB24
:103FA00040B94FF6FF7040F6CC31C2F200010A88EA
:103FB0001044088040F68040C2F200000068FCF720
:103FC00085FB804640F67840C2F2000090ED009AF2
:103FD000894619EE100AFCF779FB9FED9B0B06460C
:103FE00054EC105B0F46404649462A462346FCF7F0
:103FF000DFFA40F6844AC2F2000A68B99FED940BDA
:10400000304653EC102B3946FCF708FB20B9BAF8C0
:10401000000000F1010B13E0BAF800B03046394659
:104020002A462346FCF7C4FA60B99FED890B404647
:1040300053EC102B4946FCF7F1FA18B9ABF1010B20
:10404000AAF800B00FFA8BF000EE100A40F67C40A0
:10405000C2F2000090ED001AB8EEC00A30EE410A3C
:1040600030EE090A10EE100AFCF730FB9FED7A0BD8
:1040700053EC102BFCF7A0F99FED790B53EC102BB0
:10408000FCF7F3F8FCF735FB40F21801C2F200012F
:1040900000EE100A086040F6C830C2F2000080ED61
:1040A000008A40F63C30C2F20000046840F68041CD
:1040B000C2F2000140F2E81840F2402981ED009A76
:1040C000E107C2F20008C2F2000926D146F2676198
:1040D000C6F2666154FB01F18A0802EBD17101EB73
:1040E000810140F6FC32A4EB4101C2F2000252F819
:1040F0002110643901EE101AB8EE411AB4EE410AEB
:10410000F1EE10FA09DD40F26C01C2F2000109780B
:10411000002914BFE443013478E021466FF35E01C7
:10412000012974D14CF6CD41CCF6CC41A4FB01124F
:10413000D10801EB810140F64C42A4EB4101C2F2EF
:10414000000252F82110643101EE101AB8EE411A43
:10415000B4EE410AF1EE10FA59DA40F26C01C2F203
:1041600000010978002950D0E44304600020C8E928
:1041700000005CE040F2320040F2020240F20C0328
:10418000C2F20000C2F20002C2F20003418852886B
:104190005B880180D11A418009B201EB8100404265
:1041A000400000EE100A9FED301AB8EEC00AB4EEDF
:1041B000410AF1EE10FAA8BFB0EE410A3129217888
:1041C000BDEEC00A10EE100AA1F10102C4BF4FF605
:1041D0000C60CFF6FF70012A40F6B032C2F2000246
:1041E000106004D8002004F095FA00F09BBE03296B
:1041F00040F0998640F23901C2F2000109780029A5
:10420000F0D004F0A7FA00F08DBE01340460132C46
:104210004FF0000588BF0125142C4FF000003BD360
:10422000132CC8F80000C8F8040000F3FF80012533
:104230008CE100BF00BF00BF9A9999999999E93F15
:104240009A9999999999C93FCDCCCCCCCCCCEC3FDB
:104250009A9999999999B93F01B5FF9EDB8F67406B
:104260000000000000406FC00000FA4300002F442F
:1042700000409C450000E14300007A4300002FC449
:1042800000409CC535FA8E3CDB0F4940DB0FC9C0AE
:10429000DB0F49C0DB0FC940002C42D004F10900FC
:1042A000C1B2CD225143C90A01EB8101A0EB41000B
:1042B000E107C1B25AD140F64C40C2F2000050F8BA
:1042C000210000F52F7101EE101AB8EE411AB4F179
:1042D0000A01B4EE410A38BF2146F1EE10FA80F22D
:1042E000B28040F21822C2F2000202EB810191ED8D
:1042F000001A1FED222AB8EE411A81EE021A02EED0
:10430000100AB8EE422A30EE420A1FED272A20EEAC
:10431000010AB4EE420AF1EE10FAC8BFB0EE402A2C
:1043200055E01FED2C1AB4EE410AF1EE10FA51DA05
:1043300040F21820C2F2000090ED001A1FED352A5D
:10434000B8EE411A81EE021A1FED352A30EE020A4C
:104350001FED392A20EE010AB4EE420AF1EE10FAFE
:10436000C8BFB0EE402A12EE100A59E040F6FC3009
:10437000C2F2000050F82100A0F52F7201EE102AC1
:10438000B8EE411AB4EE410AF1EE10FA40F3818022
:1043900040F21822C2F2000202EB810191ED001AF4
:1043A0001FED4A2AB8EE411A81EE021A02EE100AF7
:1043B000B8EE422A32EE400A1FED4F2A20EE010AE3
:1043C000B4EE420AF1EE10FAB8BFB0EE402A12EE97
:1043D000100AAEE040F6FC30C2F200000068A0F522
:1043E0002F7101EE101AB8EE411AB4EE410AF1EE47
:1043F00010FA7CDD40F21821C2F2000191ED001AA2
:104400001FED662AB8EE411A81EE021A02EE100A7A
:10441000B8EE422A32EE400A20EE010A10EE100AEF
:10442000FCF754F941EC100B88ED000B40F2390019
:10443000C2F200000121017004F001000021142CDF
:1044400038BF0121F7E040F6FC30C2F2000050F81E
:104450002120A2F52F7001EE100A40F21820B8EECC
:10446000411AC2F2000050F82100B4EE410AF1EE08
:1044700010FA57DD01EE100A1FED842AB8EE411A3A
:1044800081EE021A02EE102AB8EE422A32EE400AFB
:1044900028E040F64C40B4F10A01C2F2000038BFF7
:1044A000214650F8210000F52F7201EE102A40F24B
:1044B0001822C2F2000202EB8101B8EE411A91ED1E
:1044C000002AB4EE410AF1EE10FAB8EE421A2CDAE4
:1044D0001FED962A81EE021A02EE100AB8EE422A69
:1044E00030EE420A20EE010A10EE100A21E040F2FE
:1044F0000000C2F200000078053810F1030F9BD8CD
:1045000040F21820C2F200000068FCF7B3F841EC5A
:10451000100B40F200010220C2F2000188ED000BF6
:10452000087083E7FCF7A6F805E011EE100A80F0AA
:104530000040FCF7CBF841EC100B40F23900C2F21E
:104540000000012188ED000B0170002504EBD47000
:1045500020F00100201A01286CD140F6B830C2F2D8
:104560000000006840F2C0220146002848BF4142D6
:10457000332940F27C21C2F20002C2F20001C0F0F5
:10458000EF8192ED020A91ED001A1FEDC22A30EE82
:10459000410A1FEDC31A20EE020AB4EE410AF1EE01
:1045A00010FA1DDD1FEDC72A30EE020AB4EE410AF3
:1045B000F1EE10FA14DD30EE020AB4EE410AF1EE2B
:1045C00010FA0DDD30EE020AB4EE410AF1EE10FAF7
:1045D00006DD30EE020AB4EE410AF1EE10FAE3DC39
:1045E0001FEDD51AB4EE410AF1EE10FA80F2EF8019
:1045F0001FEDD82A30EE020AB4EE410AF1EE10FAAD
:1046000080F2E58030EE020AB4EE410AF1EE10FAD3
:1046100080F2DD8030EE020AB4EE410AF1EE10FACB
:1046200080F2D58030EE020AB4EE410AF1EE10FAC3
:10463000E0DBCCE0012100296AD0002868D140F6F7
:10464000B830C2F2000000680028014648BF41426D
:104650003329C0F0E38040F2C020C2F2000090EDA8
:10466000020A40F27C20C2F2000090ED001A9FED99
:10467000A02A30EE410A9FED9F1A20EE020AB4EE06
:10468000410AF1EE10FA1DDD9FED9B2A30EE020A81
:10469000B4EE410AF1EE10FA14DD30EE020AB4EE87
:1046A000410AF1EE10FA0DDD30EE020AB4EE410AD5
:1046B000F1EE10FA06DD30EE020AB4EE410AF1EE38
:1046C00010FAE3DC9FED8D1AB4EE410AF1EE10FA18
:1046D0007DDA9FED8B2A30EE020AB4EE410AF1EE4C
:1046E00010FA74DA30EE020AB4EE410AF1EE10FA72
:1046F0006DDA30EE020AB4EE410AF1EE10FA66DA33
:1047000030EE020AB4EE410AF1EE10FAE3DB5EE0AD
:10471000002D00F0EA8040F2C020C2F2000090EDCF
:10472000020A40F27C20C2F2000090ED001A9FEDD8
:10473000702A30EE410A9FED6F1A20EE020AB4EEA5
:10474000410AF1EE10FA1DDD9FED6B2A30EE020AF0
:10475000B4EE410AF1EE10FA14DD30EE020AB4EEC6
:10476000410AF1EE10FA0DDD30EE020AB4EE410A14
:10477000F1EE10FA06DD30EE020AB4EE410AF1EE77
:1047800010FAE3DC9FED5D1AB4EE410AF1EE10FA87
:104790001DDA9FED5B2A30EE020AB4EE410AF1EE1B
:1047A00010FA14DA30EE020AB4EE410AF1EE10FA11
:1047B0000DDA30EE020AB4EE410AF1EE10FA06DA32
:1047C00030EE020AB4EE410AF1EE10FAE3DB20EE1D
:1047D000001A9FED4C5A20EE012A21EE023A22EEF9
:1047E000052A9FED495A21EE034A32EE400A23EE94
:1047F000052A9FED463A30EE020A24EE032A9FED89
:10480000443A21EE041A32EE000A21EE031A9FED1B
:10481000412A30EE010A20EE020A24E140F2C021D2
:10482000C2F2000191ED020A40F27C21C2F20001C5
:1048300091ED001A9FED2F2A30EE410A9FED2C1AC0
:10484000322120EE010A4843B4EE420AF1EE10FA9A
:1048500001EE100A1DDD9FED283A30EE030AB4EE9A
:10486000420AF1EE10FA14DD30EE030AB4EE420A09
:10487000F1EE10FA0DDD30EE030AB4EE420AF1EE6D
:1048800010FA06DD30EE030AB4EE420AF1EE10FA39
:10489000E3DC9FED1A2AB8EEC11AB4EE420AF1EE3B
:1048A00010FA80F2B8809FED163A30EE030AB4EEAB
:1048B000420AF1EE10FA80F2AE8030EE030AB4EE56
:1048C000420AF1EE10FA80F2A68030EE030AB4EE4E
:1048D000420AF1EE10FA80F29E8030EE030AB4EE46
:1048E000420AF1EE10FAE0DB95E099ED000BC0E032
:1048F00035FA8E3CDB0F4940DB0FC9C0DB0F49C0E6
:10490000DB0FC940ABAA2A3E858808BC470C50394A
:1049100091EE38B600409CC6ABAA2ABE8588083CFA
:10492000470C50B991EE383600409C4600BF00BF9E
:104930000000000000408F400000000000408FC0D9
:10494000333333333333C33F0000000000000440EF
:10495000000000000088C3C0000000000088C340C1
:1049600092ED020A91ED001A1FED1E2A30EE410A67
:104970001FED211A6FF0310320EE010A5843B4EE07
:10498000420AF1EE10FA01EE100A1DDD1FED263A83
:1049900030EE030AB4EE420AF1EE10FA14DD30EE06
:1049A000030AB4EE420AF1EE10FA0DDD30EE030A0E
:1049B000B4EE420AF1EE10FA06DD30EE030AB4EE70
:1049C000420AF1EE10FAE3DC1FED342AB8EEC11A08
:1049D000B4EE420AF1EE10FA1DDA1FED373A30EE6E
:1049E000030AB4EE420AF1EE10FA14DA30EE030ACA
:1049F000B4EE420AF1EE10FA0DDA30EE030AB4EE2C
:104A0000420AF1EE10FA06DA30EE030AB4EE420A78
:104A1000F1EE10FAE3DB20EE002A1FED416A20EEF2
:104A2000023A22EE034A23EE063A1FED446A22EED2
:104A3000045A30EE030A24EE063A1FED474A30EEE0
:104A4000030A25EE043A1FED494A22EE052A33EE09
:104A5000000A22EE042A1FED4C3A32EE000A20EE44
:104A6000030A31EE000A10EE100AFBF72FFE41ECAC
:104A7000100B1FED511B57EC105B56EC114B2846E9
:104A8000394622463346FBF7AEFD1FED550B002895
:104A90001CBF3746254654EC106B28463946324633
:104AA0002346FBF7BBFD00281CBF3C462E4698ED75
:104AB000001B44EC106B57EC115B2846394632461C
:104AC000234689ED000BFBF771FCCDE90A10304657
:104AD00021462A463B46FBF7C8FB044641EC1A0B2D
:104AE00040F2C810C2F2000080ED00AB40F2AC1AF8
:104AF00040F29410C2F2000AC2F20000BAF9028039
:104B0000BAF90090B0F902000D46AAF80480AAF89C
:104B10000290FBF79EFD02460B4620462946039471
:104B20000295FBF743FCFBF7B2FD0646AAF800002E
:104B3000A0EB0900FBF78DFD834630460D46FBF7E1
:104B400088FD1FED810B53EC102BCDE90823FBF7FB
:104B500033FC1FED830B07460C4653EC102B5846D5
:104B60002946CDE90623FBF727FC3A462346FBF707
:104B70007CFB0446A8EB4900304440000D46FBF79F
:104B800068FD02460B4620462946FBF76EFB0246AF
:104B900040F28020C2F2000090ED000B0B4651EC79
:104BA000100BFBF762FB1FED968B044653EC182BA2
:104BB0008B4641EC1B0BCDE90423FBF7DEFCB0EE8A
:104BC000489AF0EE689A68B91FED9D9B204653EC19
:104BD000192B5946FBF707FD002804BFB0EE4B9A8E
:104BE000F0EE6B9ADDE90A10BAF9089041EC1B0B64
:104BF00040F28020C2F2000080ED009B40F2C8101D
:104C0000C2F2000080ED02AB40F29410C2F200004C
:104C1000BAF906B0B0F90800AAF80A90AAF808B0E4
:104C2000FBF717FD02460B46DDE90210FBF7BEFB62
:104C3000FBF72DFD0446AAF80600A0EB0B00FBF7DE
:104C400008FD804620460E46FBF703FDDDE90823FC
:104C5000FBF7B2FBDDE9062307460D464046314629
:104C6000FBF7AAFB3A462B46FBF7FFFA0546A9EBF2
:104C70004B00204440000E46FBF7EBFC02460B467F
:104C800028463146FBF7F1FA024640F28020C2F294
:104C9000000090ED020B0B4651EC100BFBF7E5FA10
:104CA000DDE9042304460D4641EC1C0BFBF765FCD3
:104CB000B0EE48AAF0EE68AA68B91FEDD9AB20465D
:104CC00053EC1A2B2946FBF78EFC002804BFB0EEEC
:104CD0004CAAF0EE6CAA40F28020C2F2000080EDF7
:104CE00002AB40F2C810C2F2000080ED04BB40F2FB
:104CF0009410C2F20000BAF90E90BAF90CB0B0F9F3
:104D00000E00AAF81090AAF80EB0FBF7A2FC02461B
:104D10000B46DDE90A10FBF749FBFBF7B8FC04463C
:104D2000AAF80C00A0EB0B00FBF793FC8046204692
:104D30000E46FBF78EFCDDE90823FBF73DFBDDE9C2
:104D4000062307460D4640463146FBF735FB3A46FB
:104D50002B46FBF78AFA0546A9EB4B00204440009E
:104D60000E46FBF776FC02460B4628463146FBF71B
:104D70007CFA024640F28020C2F2000090ED040B63
:104D80000B4651EC100BFBF770FADDE904230446E7
:104D90000D4641EC1D0BFBF7F0FBB0EE48CAF0EE00
:104DA00068CA68B99FEDF4CB204653EC1C2B29460A
:104DB000FBF719FC002804BFB0EE4DCAF0EE6DCA37
:104DC00040F28020C2F2000080ED04CB40F2C81017
:104DD000C2F2000080ED06BB40F29410C2F2000067
:104DE000BAF91490BAF912B0B0F91400AAF81690F2
:104DF000AAF814B0FBF72DFC02460B46DDE90A10B9
:104E0000FBF7D4FAFBF743FC0446AAF81200A0EB28
:104E10000B00FBF71EFC804620460E46FBF719FCF4
:104E2000DDE90823FBF7C8FADDE9062307460D464E
:104E300040463146FBF7C0FA3A462B46FBF715FAD7
:104E40000546A9EB4B00204440000E46FBF701FC51
:104E500002460B4628463146FBF707FA024640F267
:104E60008020C2F2000090ED060B0B4651EC100BB7
:104E7000FBF7FBF9DDE9042304460D4641EC1B0B6F
:104E8000FBF77BFB68B99FEDBC8B204653EC182BDE
:104E90002946FBF7A8FB002804BFB0EE4B8AF0EED2
:104EA0006B8A40F28020C2F2000080ED068B51EC4C
:104EB000190BFBF7ECFB40F68038C2F20008044601
:104EC000A8F8000051EC1A0BFBF7E1FBA8F8020070
:104ED0008DED0ECB05469DF83F0080F080008DF8EB
:104EE0003F00DDE90E01FBF7D2FBA8F804008DEDD1
:104EF0000C8B06469DF8370080F080008DF8370057
:104F0000DDE90C01FBF7C3FB0746A8F8060001200A
:104F100021462A463346009703F040FC40F2000445
:104F2000C2F200042178032906D0022900F0AE80E5
:104F3000012900F0B28017E140F20C0040F20201BA
:104F4000C2F20000C2F200010088098840F2480560
:104F5000401A04B280EAE430C2F20005A0EBE4306B
:104F600095ED008B0B900FFA80FB204685ED028BB0
:104F7000FBF76FFB804641EC100B40F23C10C2F295
:104F8000000085ED000B90ED000A01EE104AB8EE2E
:104F9000C11A20EE010A10EE100A8946FBF796FBB3
:104FA00040F2600AC2F2000A9AED000B02460B467C
:104FB00051EC100BFBF759F99FED710B044657ECC0
:104FC000106B32463B460D46FBF70DFB9FED6E0B1B
:104FD00000281CBF3D46344656EC107B204629462F
:104FE0003A463346FBF71AFB00281CBF2E462746DD
:104FF00046EC107B6EA066A18AED000BBBF1240F7E
:10500000B8BF0430B8BF0831006891ED000B40F222
:105010004011C2F20001086040F238104CF6CD4158
:10502000C2F20000CBF64C61016051EC100B42461D
:105030004B46FBF7C1F93A463346FBF716F90446EF
:105040000D4653EC182B40464946FBF7AFF99FED50
:10505000540B53EC102BFBF7AFF922462B46FBF712
:1050600004F9FBF746FB0B9900EE100A293989B2C7
:1050700009293DD8B3EE0E1AB4EE410AF1EE10FA4A
:10508000A8BFB0EE410ABBEE0E1A3CE040F63C3041
:10509000C2F200000068132843DC40F23A00C2F27A
:1050A0000000B0F90000FBF7D4FA9FED3F0B53EC82
:1050B000102BFBF781F9FBF71CFB9FED3F0A01EE7C
:1050C000100A9FED3E2AB4EE401A40F6AC30F1EEE5
:1050D00010FAA8BFB0EE401AB4EE421AC2F20000B5
:1050E000F1EE10FAC8BFB0EE412A80ED002A3BE095
:1050F000B2EE041AB4EE410AF1EE10FAA8BFB0EE17
:10510000410ABAEE041A40F6AC30B4EE410AC2F2DB
:105110000000F1EE10FAC8BFB0EE401A80ED001AA0
:1051200022E040F20100C2F2000090F9001040F6C7
:10513000AC32C1EB011100EE101A40F23A01C2F29A
:105140000001B1F90010B8EEC00AC2F2000211F578
:10515000196F82ED000A02DA0121017004E0B1F555
:10516000C87FC4BFFF21017010B0BDEC0C8B01B033
:10517000BDE8F08F00BF00BF000000000088C34002
:10518000B81E85EB51B89E3FB81E85EB51B89EBF47
:10519000000000A09999A9BF00000040E17AA4BFD7
:1051A000000000A09999C9BF333333333333D3BFE1
:1051B000CDCC4CBD0AD723BD0000C8420000C8C2F8
:1051C0004FEAB101032984BF00207047DFE801F0F6
:1051D000020E060A006834300068704700683C30F0
:1051E00000687047006840300068704700683830D9
:1051F000006870477047000070B582B0044690F8B0
:105200004200202809D113460A4600294FF0010028
:1052100018BF002B04D102B070BD022002B070BDD7
:105220002063002622206663A262A385666484F858
:105230004200E06B47F6950C47F6F5152168C0F67D
:10524000000CC0F60005C0E90FC547F21975C0F69D
:1052500000050431C0E91356FCF760FA0196206896
:1052600001680191406801900198206930B300BF46
:10527000206850E8030F216840F4807041E8030281
:10528000E2B1206850E8030F216840F4807041E8E3
:1052900003029AB1206850E8030F216840F480703F
:1052A00041E8030252B1206850E8030F216840F43E
:1052B000807041E80302002ADAD100BF206850E87C
:1052C000050F216840F0010041E80502BAB32068EB
:1052D00050E8050F216840F0010041E8050272B373
:1052E000206850E8050F216840F0010041E8050200
:1052F0002AB3206850E8050F216840F0010041E81A
:105300000502002ADAD11AE0206850E8050F21686A
:1053100040F0400041E80502DAB1206850E8050F8E
:10532000216840F0400041E8050292B1206850E851
:10533000050F216840F0400041E805024AB12068AD
:1053400050E8050F216840F0400041E80502002ABE
:10535000DAD1206B01282FD100200090206801684D
:105360000091406800900098206850E8030F216881
:1053700040F0100041E80302DAB1206850E8030F62
:10538000216840F0100041E8030292B1206850E823
:10539000030F216840F0100041E803024AB1206881
:1053A00050E8030F216840F0100041E80302002A92
:1053B000DAD1002002B070BD012002B070BD000043
:1053C00090F84230202B07D100294FF0010318BF7D
:1053D000002A04D11846704702231846704781B04E
:1053E0000123036300234363816222218285C285F6
:1053F000436480F84210026901681AB1CA6842F435
:105400008072CA604A6942F001024A61CA6842F089
:105410002002CA60026B012A2DD1002200920A6884
:105420000092496800910099016851E8031F0268E1
:1054300041F0100142E80313DBB1016851E8031F9A
:10544000026841F0100142E8031393B1016851E88A
:10545000031F026841F0100142E803134BB10168D9
:1054600051E8031F026841F0100142E80313002BCA
:10547000DAD1002300E0012301B018467047000094
:105480002DE9F041054640F64410C2F20000854285
:10549000884600F09E8040F61C20C2F20000854243
:1054A00000F0128140F66420C2F20000854200F054
:1054B000808240F6AC20C2F20000854240F081813B
:1054C00040F28011C2F200010A7840F2D82CC2F2F8
:1054D000000C00200D2A4FF00003ACF8000062D051
:1054E000002707EB8707CE187F00747857FA82F2FF
:1054F0000D2CA2F1300753D007EB8707B27804EBED
:1055000047070D2AA7F130074AD007EB8707F47841
:1055100002EB47020D2CA2F1300741D007EB8707C1
:10552000327904EB47070D2AA7F1300738D007EB93
:105530008707747902EB47020D2CA2F130072FD0B8
:1055400007EB8707B27904EB47070D2AA7F130076D
:1055500026D007EB8707F47902EB47020D2CA2F166
:1055600030071DD007EB8707327A04EB47070D2A77
:10557000A7F1300714D007EB8707747A02EB4702D4
:105580000D2CA2F130070BD007EB870204EB42028F
:10559000092BA2F1300703D8B27A0A330D2AA0D121
:1055A0003BB2ACF8007040F2DA22C2F20002B2F96B
:1055B0000020C1E900009A1A40F6B833C2F2000395
:1055C000C1E90200086140F6AC201A60C2F2000096
:1055D000F4E040F24411C2F200010C7840F2CC2C0D
:1055E000C2F2000C00200D2CACF8000062D00023A9
:1055F000002707EB8702CE185700727857FA84F716
:105600000D2AA7F1300753D007EB8707B47802EBD8
:1056100047020D2CA2F130074AD007EB8707F2783A
:1056200004EB47070D2AA7F1300741D007EB8707A6
:10563000347902EB47020D2CA2F1300738D007EB8A
:105640008707727904EB47070D2AA7F130072FD09F
:1056500007EB8707B47902EB47020D2CA2F1300764
:1056600026D007EB8707F27904EB47070D2AA7F14D
:1056700030071DD007EB8707347A02EB47020D2C69
:10568000A2F1300714D007EB8707727A04EB4707C3
:105690000D2AA7F130070BD007EB870702EB470273
:1056A000092BA2F1300703D8B47A0A330D2CA0D10C
:1056B000ACF80070C1E90000C1E90200086140F6E1
:1056C0004410C2F2000079E040F25811C2F2000129
:1056D0000C7840F2D02CC2F2000C00200D2CACF85B
:1056E000000062D00023002707EB8702CE18570086
:1056F000727857FA84F70D2AA7F1300753D007EBD9
:105700008707B47802EB47020D2CA2F130074AD08C
:1057100007EB8707F27804EB47070D2AA7F130075C
:1057200041D007EB8707347902EB47020D2CA2F139
:10573000300738D007EB8707727904EB47070D2A4B
:10574000A7F130072FD007EB8707B47902EB4702A8
:105750000D2CA2F1300726D007EB8707F27904EB76
:1057600047070D2AA7F130071DD007EB8707347ACA
:1057700002EB47020D2CA2F1300714D007EB87078C
:10578000727A04EB47070D2AA7F130070BD007EB1D
:10579000870702EB4702092BA2F1300703D8B47A3E
:1057A0000A330D2CA0D1ACF80070C1E90000C1E9AA
:1057B0000200086140F61C20C2F200001422FFF72C
:1057C0001BFD40F6D410C2F20000854279D040F6AD
:1057D0008C10C2F20000854218BFBDE8F08140F293
:1057E0007007C2F200073878592858D178785328C2
:1057F00055D1D7F82B00FAF72CFF9FEDAD0B54ECE9
:10580000105B2A462346FAF7D7FDFAF772FF9FEDA1
:10581000AB2A00EE100A9FEDA81A40F2E020B4EE89
:10582000420AC2F2000030EE011AF1EE10FAC8BFCF
:10583000B0EE410A80ED020AD7F81500D7F81960DA
:10584000FAF707FF2A462346FAF7B6FDFAF751FFA3
:1058500040F22008C2F20008C8F800003046FAF70B
:10586000F8FE2A462346FAF7A7FDFAF742FF97F813
:105870002010C8F804004842B97FFA7F09027B7FF4
:1058800041EA02411944C1EB0060FAF7E2FE2A4600
:105890002346FAF791FDFAF72CFFC8F8080040F20A
:1058A0007004C2F200042046C821FAF7D3FC40F687
:1058B0008C10C2F200002146C822BDE8F041FFF77B
:1058C0009BBCB8F1030F23D140F24820C2F2000084
:1058D0000178AB295AD14178CD2957D18078EF286A
:1058E00054D140F20000C2F20000017801294DD0ED
:1058F00040F23601C2F200010A7801320A70022138
:10590000017040F26C00C2F20000002101703DE025
:10591000B8F10A0F3AD140F24820C2F200000178F3
:10592000552933D1417AAA2930D1B0F8051040F277
:105930000C0209BAB0F80730090CC2F2000211805B
:1059400019BA40F22C03090CC2F20003518040F254
:1059500000011F78C2F2000103220A70791C19703D
:1059600040F23801C2F20001002240780A7040F291
:105970006C01C2F20001012264280A7006D140F6CF
:10598000B400C2F2000000686921C16340F2BC2388
:10599000C2F20003002740F6D41040F24821C2F2C0
:1059A0000000C2F200010A221F60BDE8F041FFF7CB
:1059B00023BC40F26C11C2F200010C7840F2D42CEE
:1059C000C2F2000C00200D2CACF8000062D00023C5
:1059D000002707EB8702CE185700727857FA84F732
:1059E0000D2AA7F1300753D007EB8707B47802EBF5
:1059F00047020D2CA2F130074AD007EB8707F27857
:105A000004EB47070D2AA7F1300741D007EB8707C2
:105A1000347902EB47020D2CA2F1300738D007EBA6
:105A20008707727904EB47070D2AA7F130072FD0BB
:105A300007EB8707B47902EB47020D2CA2F1300780
:105A400026D007EB8707F27904EB47070D2AA7F169
:105A500030071DD007EB8707347A02EB47020D2C85
:105A6000A2F1300714D007EB8707727A04EB4707DF
:105A70000D2AA7F130070BD007EB870702EB47028F
:105A8000092BA2F1300703D8B47A0A330D2CA0D128
:105A9000ACF80070C1E90000C1E90200086140F6FD
:105AA0006420C2F200001422FFF78AFC89E600BFDE
:105AB0008DEDB5A0F7C6B03E0000B4C3000034437E
:105AC00070470000B0B582B0044600680168C36842
:105AD000426901F02F05202D03F0200506D12DB1DC
